:020000040000FA
:100000009004002049010000630100002914000051
:1000100000000000000000000000000000000000E0
:100020000000000000000000000000006701000068
:100030000000000000000000690100006B010000EA
:10004000711400007B140000851400008F14000060
:100050006D0100006D01000099140000A314000060
:100060006D0100006D010000AD1400006D01000085
:10007000B71400006D010000C1140000CB14000093
:10008000D51400006D010000DF140000E914000029
:10009000F3140000FD140000071500006D010000BE
:1000A000111500006D0100001B1500002515000052
:1000B0002F1500006D0100003915000043150000E8
:1000C00000F002F800F030F80CA030C8083824180E
:1000D0002D18A246671EAB4654465D46AC4201D180
:1000E00000F022F87E460F3E0FCCB6460126334282
:1000F00000D0FB1AA246AB463343184748300000F5
:10010000683000000023002400250026103A01D3A7
:1001100078C1FBD8520700D330C100D50B607047BF
:100120001FB51FBD10B510BD00F0EAF81146FFF76E
:10013000F7FF02F031FE00F002F903B4FFF7F2FF1F
:1001400003BC02F0FBFB00000C480D4A002100A19B
:10015000814200D902440B4802600B4880470B489B
:100160000047FEE7FEE7FEE7FEE7FEE7FEE70000EA
:1001700007480849064A084B704700000000002065
:100180000000000008ED00E0891F0000C100000031
:10019000900300209004002090030020704700226C
:1001A00003098B422CD3030A8B4211D300239C46B4
:1001B0004EE003460B433CD4002243088B4231D32C
:1001C00003098B421CD3030A8B4201D394463FE0C0
:1001D000C3098B4201D3CB01C01A524183098B4220
:1001E00001D38B01C01A524143098B4201D34B0109
:1001F000C01A524103098B4201D30B01C01A52416C
:10020000C3088B4201D3CB00C01A524183088B42F2
:1002100001D38B00C01A524143088B4201D34B00DB
:10022000C01A5241411A00D201465241104670474D
:100230005DE0CA0F00D04942031000D34042534052
:1002400000229C4603098B422DD3030A8B4212D312
:10025000FC22890112BA030A8B420CD38901921144
:100260008B4208D3890192118B4204D389013AD081
:10027000921100E08909C3098B4201D3CB01C01A56
:10028000524183098B4201D38B01C01A5241430969
:100290008B4201D34B01C01A524103098B4201D357
:1002A0000B01C01A5241C3088B4201D3CB00C01AC4
:1002B000524183088B4201D38B00C01A5241D9D2DC
:1002C00043088B4201D34B00C01A5241411A00D25D
:1002D0000146634652415B10104601D34042002B59
:1002E00000D54942704763465B1000D3404201B5D8
:1002F0000020C046C04602BD704770477047704737
:10030000754600F025F8AE46050069465346C0081C
:10031000C000854618B020B5FFF72AFF60BC002753
:100320004908B6460026C0C5C0C5C0C5C0C5C0C5C1
:10033000C0C5C0C5C0C5403D49008D46704710B519
:100340000446C046C0462046FFF7F7FE10BD000039
:10035000004870473003002030B58C180278401CEC
:1003600013071B0F01D10378401C120906D1027834
:10037000401C03E00578401C0D70491C5B1EF9D140
:1003800001E00B70491C521EFBD1A142E6D30020B4
:1003900030BD000002488168C213914381607047FC
:1003A0000024004010B500292CD000282AD00122BA
:1003B0000270154883680415234383604368F02462
:1003C000A3430C782407240E234343608368C4149A
:1003D000A3438C78E407240D234383608B78002BA0
:1003E00003D08368C413234383600B789A40C260B0
:1003F000C268FF231B0249789A4309020A43C2607C
:10040000002010BD042010BD0024004002484168B7
:10041000012211434160704700240040002806D0AB
:10042000044949690903090B016000207047042051
:10043000704700004024004070B5174D286A174CE3
:10044000400707D56068002800D08047686A04210B
:1004500088436862286A800707D5A068002800D012
:100460008047686A022188436862286AC00707D00B
:10047000E068002800D08047686A40084000686251
:10048000286A000707D52068002800D08047686ADE
:1004900008218843686270BD40240040200300208A
:1004A00010B5002856D02C494A680C239A4343784B
:1004B0009B071B0F1A434A604A680323DB029A43D7
:1004C00083789B07DB0C1A434A604A6803231B02AC
:1004D0009A43C3789B079B0D1A434A604A680B15E1
:1004E0009A430379DB075B0D1A434A601A4A40328C
:1004F000936904891B0B1B032405240D234393617B
:10050000D36984891B0B1B032405240D2343D3616A
:100510008A68037C52095201DB06DB0E1A438A60AB
:100520008A681F23407C5B01C0069A43800D02430A
:100530008A604A68081482434A608A6882438A60F3
:1005400088684A149043886088688A149043886059
:10055000002010BD042010BD002400400748416A5F
:10056000082291434162054840384168C213114353
:1005700041604168022211434160704740240040BD
:1005800002484168022291434160704700240040C4
:10059000F8B5414F3F4E3888727C0024411E3F4BD6
:1005A000012A0DD0B27C002A4DD0F27E032A47D812
:1005B000994237D801220421032000F01DFFF8BD25
:1005C000727E0225012A09D0002AF8D131291FD8CC
:1005D00001220421032000F00FFFF8BD304A9142B0
:1005E00005D801220421032000F006FFF8BD2D49A3
:1005F0004118994205D800220421032000F0FCFE96
:10060000F8BD29498842FBD974763C807574F8BDE1
:100610003228FCD900220421032000F0EDFE3C80AA
:100620007574F8BD21494018984205D8002204216C
:10063000032000F0E1FEF8BD521CF2763C80F8BDCC
:10064000F476B474F8BD727B002A1DD0327B002A88
:100650001AD0124AC83A914205D801220421032037
:1006600000F0CAFEF8BD1149C8314118914205D8C1
:1006700000220421032000F0BFFEF8BD19218901EA
:100680008842FAD93C80F8BD00220421032000F002
:10069000B3FEF8BD08000020BC020020E703000004
:1006A000CF0700002FF8FFFFB80B000017FCFFFF7B
:1006B00000220F4B002806D001280AD002280ED0B5
:1006C0000122104670471868000C000408431860A7
:1006D000F7E7186A000C000408431862F1E70448C1
:1006E000403003681B0C1B040B430360E9E7000068
:1006F000000C004000210D4A002806D0012809D036
:1007000002280CD00121084670475069400840007B
:100710005061F8E7506B400840005063F3E703482E
:1007200040304269520852004261ECE7000C004040
:1007300000220F4B002806D001280AD002280ED034
:100740000122104670475868000C000408435860A6
:10075000F7E7586A000C000408435862F1E70448C0
:10076000403043681B0C1B040B434360E9E7000067
:10077000000C004000210C4B1A15002806D001285F
:1007800008D002280AD0012108467047D8681043D3
:10079000D860F9E7D86A1043D862F5E702484030DC
:1007A000C3681343C360EFE7000C0040014600201C
:1007B0000A4A002909D001290BD0022904D107488F
:1007C00040300069C007C00F70471069C007C00FF4
:1007D0007047106BC007C00F70470000000C00404E
:1007E000F0B500234F4A02245515961570270028AE
:1007F00006D0012834D0022862D001231846F0BD6B
:10080000D068A8430D78ED07AD0D2843D060D068BF
:100810004D78B043ED07ED0D2843D060D0688D785A
:10082000B8436D076D0E2843D060D0680825A843F3
:10083000CD78ED072D0F2843D060D0680425A8435C
:100840000D79ED076D0F2843D060D068A0434C7937
:10085000E407A40F2043D060334889680160CDE7E6
:10086000D06AA8430D78ED07AD0D2843D062D06A59
:100870004D78B043ED07ED0D2843D062D06A8D78F6
:10088000B8436D076D0E2843D062D06A0825A8438F
:10089000CD78ED072D0F2843D062D06A0425A843F8
:1008A0000D79ED076D0F2843D062D06AA0434C79D3
:1008B000E407A40F2043D0621B48C96841609DE74C
:1008C00018484030C268AA430D78ED07AD0D2A43A1
:1008D000C260C2684D78B243ED07ED0D2A43C26095
:1008E000C2688D78BA436D076D0E2A43C260C26834
:1008F0000825AA43CD78ED072D0F2A43C260C268B0
:100900000425AA430D79ED076D0F2A43C260C26822
:10091000A2434C79E407A40F2243C260024809694C
:1009200081606BE7000C0040F402002000210122EE
:100930000B4B002806D0012808D002280AD001213C
:1009400008467047D8681043D860F9E7D86A104362
:10095000D862F5E702484030C3681343C360EFE74D
:10096000000C004010B500240021204601F00FFFCC
:10097000641CE4B2162CF7D310BD000003480249F2
:1009800081600349816070475A5A0000002000408E
:10099000A5A5000003480F220168D202914301601F
:1009A0007047000000200040F8B505460E460024C0
:1009B000FFF7E4FF002E01D0012000E00020194BDA
:1009C000002D27D00426012D0DD0022D04D0FFF7D5
:1009D000E1FF04242046F8BD1968C007B143400F69
:1009E00001431960F6E7104AD568C1070227C90F0D
:1009F000BD4348000543D560D5688900B5430D4324
:100A0000D56019690F22114319611968B94301436F
:100A10001960DFE71968C00749084900C00F0143A2
:100A20001960D7E700200040000D02400146002079
:100A3000094A002907D0012909D0022902D15069A9
:100A4000C004C00F7047D0680005C00F7047106920
:100A50004006C00F70470000002000400EB5002087
:100A600018A109680291184906C901920091174A14
:100A700011688906890F002904D001291CD0022998
:100A80001BD112E0D06802A94005800F085C104914
:100A900048431049884210D10F494988D3685B0503
:100AA0005B0D8B4209D10D4807E05069694680050E
:100AB000C00F8000085800E009481168C905490FB7
:100AC000C8400EBD040810183C3100000020004052
:100AD00040420F0000366E01000C100040865101AC
:100AE0000048E80110B50446207800F059F9607814
:100AF00000F052F8A07800F077F8002010BD000058
:100B000070B505460E460024FFF738FF002E01D0D1
:100B1000012100E000211F482B0001F002FF060424
:100B20000D151D252D3602680123DB03C9079A43E5
:100B3000090C0A4302602BE042680223C9079A436A
:100B4000890F0A43426023E042681023C9079A4391
:100B5000C90E0A4342601BE042684023C9079A431A
:100B6000490E0A43426013E042688023C9079A4352
:100B7000090E0A4342600BE04268FF230133C907B4
:100B80009A43C90D0A43426002E0FFF703FF0424C1
:100B9000204670BD0020004010B50446102C11D036
:100BA00008DC012C0ED0022C0CD0042C0AD0082C0E
:100BB00006D107E0202C05D0402C03D0802C01D09A
:100BC000042010BDFFF7DAFE204600F0ACFD054A18
:100BD0001168FF23C13340079943C00D01431160E1
:100BE000002010BD0020004010B50446012C07D0A5
:100BF000022C05D0042C03D0082C01D0042010BDF9
:100C0000FFF7BCFE204600F08EFD054A1168032365
:100C10005B0280079943400D01431160002010BD25
:100C20000020004010B503460020002901D0012219
:100C300000E000220121064C9940002A03D0226ADC
:100C40000A43226210BD226A8A43226210BD00005C
:100C50000020004010B504460020A41E1B4A1C4979
:100C6000230001F05EFE05040D161F2831001289D5
:100C7000CB685205520DDB0ADB021343CB6010BD7B
:100C8000D288CB685205520DDB0ADB021343CB60DE
:100C900010BD9288CB685205520DDB0ADB0213436C
:100CA000CB6010BD5288CB685205520DDB0ADB02C7
:100CB0001343CB6010BD1288CB685205520DDB0A7E
:100CC000DB021343CB6010BD042010BD000C1000EC
:100CD0000020004000210323114A9B02002808D075
:100CE00001280AD002280FD0032814D00421084676
:100CF0007047506998435061F9E750699843012360
:100D00009B02C0185061F2E7506998430123DB024F
:100D1000C0185061EBE7506918435061E7E70000E5
:100D20000020004070B504460025FFF727FE002C88
:100D300008D0012C06D0022C04D0FFF72BFE04258E
:100D4000284670BD0449086830229043A207920EDD
:100D500010430860F4E700000020004000210F4A23
:100D60003023032808D004280AD005280DD00628EF
:100D700010D0042108467047106998431061F9E7C4
:100D80001069984310301061F4E7106998432030DF
:100D90001061EFE7106918431061EBE70020004095
:100DA000F8B504461C4800688006860F002C0CD05D
:100DB000012C03D0022C05D00420F8BD0620FFF73B
:100DC000CDFF02E00320FFF785FF154D1348E862D1
:100DD0001448E8620427012C01D0012E02D1286AB0
:100DE0003843286201212046FFF7DEFD2046FFF749
:100DF0001DFE0028FAD02046FFF794FF0021304660
:100E0000FFF7D2FD012C02D0286AB843286201F016
:100E1000B3F80020F8BD0000002000405A5A00003E
:100E200000000240A5A5000000280FD01E4A116A4C
:100E3000D30219431162017803239B06002907D0CE
:100E4000012913D002290AD00420704704207047DA
:100E5000516B99430123DB06C918516309E0516BBB
:100E6000994301239B06C918516302E0516B194352
:100E70005163516B01235B0699434378DB079B0960
:100E80001943516341680948491E41610849CA69CB
:100E90001202120A43041A43CA610021816101212E
:100EA00001610020704700000020004000E000E0E9
:100EB00004ED00E000B5012000F01BF8012000F077
:100EC00018F8012000F015F8012000F012F80120B8
:100ED00000F00FF800BD00B5012000F00AF8012075
:100EE00000F007F8012000F004F8012000F001F8FC
:100EF00000BD03E00021491C0229FCD3401E411C17
:100F0000F8D17047FEB50023019302930093814806
:100F100001220678804881490078814C002E76D0E5
:100F2000804D2D78002D2ED0012D06D0022D10D011
:100F3000032D16D0042D1BD07FE0CA718A72CA72AD
:100F40000A734A738A73CA730A744A748A74CA74B5
:100F500073E0CA718A72CA720A734A73CA730A74D6
:100F60006BE08A72CA720A734A748A74CA7464E043
:100F70000A724A72CA720A734A73CA730A748A740A
:100F8000CA740A7559E0002801D1012E08D0012841
:100F90000DD0022812D0644D03282D7815D016E00C
:100FA0002270A2706370E3702371A37145E0227018
:100FB0002271A3706370E370A3713EE06270E2700F
:100FC0002370A3702371A37137E0002D02D0032892
:100FD00007D032E0A2712270A2706370E3702371B7
:100FE0002BE0012D29D15148514E0088451EB542B4
:100FF00001D2627004E0E125AD00A84200D963701F
:10100000A2712370A370E370237116E0FFE7042838
:1010100050D000200B540A18D37193735375401CA1
:10102000C0B20728F6D300202354221893701371FE
:101030009371401CC0B20228F6D3002001AD0A18FB
:10104000D6790B5C76003343967B527DB600D20096
:10105000164333432B54401CC0B20728EFD300265D
:10106000A95D304601F093FB761CF6B2062EF7D34D
:101070006846817A0D2001F08AFB00206B4621181A
:101080008D78225C6D002A430D798979AD00C90005
:101090000D432A431A54401CC0B20228EFD36846BD
:1010A00001780E2001F073FB684641780F2001F0B3
:1010B0006EFBFEBD1F48007805280ED0062821D003
:1010C0000728BAD10020235422189370137193710A
:1010D000401CC0B20228F6D3AFE700200A540B1818
:1010E000DA719A735A75401CC0B20728F6D30020F3
:1010F000225423189A701A719A71401CC0B20228A7
:10110000F6D39AE72270A2706370E3702371A37123
:1011100093E70000140000200800002004030020D2
:101120009C02002015000020B4020020B60200201E
:10113000830300000900002070B543B2C506ED0E20
:101140000124AC40002B01DB174D2C608007C00E42
:10115000FF2585408907090E8140002B08DB9E088A
:101160001248B60030180668AE430E4306600AE027
:101170001807000F083886080D48B6003018C669F1
:10118000AE430E43C661012A08D0002B05DB094897
:101190000460BFF34F8FBFF36F8F70BD002BFCDB7C
:1011A00004488038046070BD80E200E000E400E0A4
:1011B00000ED00E080E100E070B5FFF7CFF9164CDC
:1011C0000120A07015497D22606AD2000B6A1B07BE
:1011D00001D49042FAD34B6A0825AB434B620021FD
:1011E000904206D36162A170FFF7D4F8FFF7C8F907
:1011F00070BD6162A17008482030FFF70FF9FFF75A
:10120000C9F8FFF7BDF9206A0A2148430921FEF712
:10121000C6FF206270BD000008000020402400408E
:10122000F8B51B4E1B4F30781B4D1C4C002802D1CB
:10123000387800281BD11A4800F0E2F918487D22BE
:101240000168D2005143174A090D116040687D21A1
:1012500009014843000DFF38F53828600020307040
:10126000012038702078032801D2401C207020789B
:1012700003280BD10C49286808600C4D0A21FEF7A1
:1012800098FF0A2148432860042020700120F8BDFF
:10129000B50200200400002044000020B00200201D
:1012A0009002002040000020E00200209802002070
:1012B000034A800180184068C840C007C00F7047CB
:1012C000000D024070B506460D4614461449086AE2
:1012D000CA031043086200222946304600F078F81D
:1012E000B001AA000F4B00218218D21811600E49DC
:1012F0000123AB404018002C03D001681943016062
:1013000002E0016899430160016A99430162416A00
:1013100099434162C16A9943C162002070BD0000D7
:1013200000200040000C0240000D0240F0B50446D1
:101330000F4616461D462348016AC2031143016247
:1013400000223946204600F043F8A001BA001E4BA7
:1013500000218218D21811601C490124BC40401899
:10136000002E03D001682143016002E00168A1431F
:1013700001600799002903D0C1692143C16102E0DE
:10138000C169A143C161002D03D0016A21430162FB
:1013900002E0016AA14301620599002903D0416A74
:1013A0002143416202E0416AA1434162069900295A
:1013B00003D0C16A2143C16202E0C16AA143C16294
:1013C0000020F0BD00200040000C0240000D024053
:1013D00010B50123074C8B4080010019002A03D06F
:1013E000C1681943C16002E0C1689943C16000202F
:1013F00010BD0000000D024010B5002A01D00123ED
:1014000000E000230122074C8A4080010019002BD4
:1014100003D081681143816010BD81689143816070
:1014200010BD0000000D024008B50020009000989B
:101430000028FCD008BD10B500F027FD082000F002
:101440007EFD00F0F7FC082000F079FD00F02FFD94
:10145000082000F074FD00F0FFFC082000F06FFD94
:1014600010BD00000148006800470000F0020020A5
:1014700010B50020C046C04610BD10B50120C046C2
:10148000C04610BD10B50220C046C04610BD10B504
:101490000320C046C04610BD10B50020C046C0465F
:1014A00010BD10B50120C046C04610BD10B50020CB
:1014B000C046C04610BD10B50020FFF7D3FF10BDD9
:1014C00010B5002000F0A8FF10BD10B5012000F0FD
:1014D000A3FF10BD10B5022000F09EFF10BD10B597
:1014E0000420C046C04610BD10B50520C046C04609
:1014F00010BD10B50620C046C04610BD10B5002076
:10150000C046C04610BD10B5002001F00BF910BD5B
:1015100010B50020FEF790FF10BD10B50020C046AA
:10152000C04610BD10B50120C046C04610BD10B564
:101530000020C046C04610BD10B50020C046C046C1
:1015400010BD10B50020C046C04610BD3EB50024F9
:10155000012500942B462246052128460195029438
:10156000FFF7E4FE012205211046FFF745FF0123A6
:10157000009400220421184601950294FFF7D6FE3C
:10158000012204211046FFF737FF3EBD10B5FFF7DB
:10159000DDFFFFF750FF702001F09FF900F026FCFF
:1015A000A82001F09AF900F021FC002001F095F943
:1015B00000F01CFC002001F090F900F017FC00F096
:1015C000C9FC0E4800F0BBFCFFF735FF702001F0AE
:1015D00084F900F00BFCE12001F07FF900F006FC3B
:1015E000082001F07AF900F001FC002001F075F903
:1015F00000F0FCFB00F0AEFC10BD00001E2B000054
:10160000F0B587B005460020069005900490039041
:10161000029001900026002400F06BF82A4F0DE0A4
:10162000384600F08CFC032C06D3284908780228A1
:1016300008D2401C087005E0641CA4B200F048F811
:10164000C009EDD1FFF7F7FE712001F046F900F077
:10165000CDFB01F01AF9069000F03BFC01F015F902
:10166000059000F036FC01F010F9049000F031FC18
:1016700001F00BF9039000F02CFC01F006F9029048
:1016800000F027FC01F001F9019000F03DFC00F0B2
:1016900061FC6946087D06433002097C084300026C
:1016A0006946097B0843000928606946087B0002F7
:1016B000097A084300026946097908430003000BD0
:1016C000686007B0F0BD0000E405000018000020CD
:1016D00010B5FFF7B0FE712001F0FFF800F086FBB7
:1016E00001F0D3F8044600F00FFC00F033FC204674
:1016F00010BD10B5FFF79FFE702001F0EEF800F06E
:1017000075FBAC2001F0E9F800F070FB332001F02C
:10171000E4F800F06BFB002001F0DFF800F066FB5E
:1017200000F018FC10BD0021002802D17047491CB0
:1017300040080128FBD80846704710B500F03EFC71
:1017400000F0C0FA00F008F810BD0020401CC0B244
:101750000228FBD37047000030B587B0142102A8DF
:1017600001F0EDF8032101A801F0E9F801220421BC
:101770000220FFF72DFEFEF749FE12480168012501
:10178000294301600168022291430160012001F0B8
:10179000E1F8684605720024447284720321C17224
:1017A00004730476447602A8FEF77AFE6846047154
:1017B00008214171857101A902A8FEF7F3FD07B068
:1017C00030BD000000240040F1B582B00020009040
:1017D000F848029A00787D21C9005342002808D0B9
:1017E000012845D002285AD0F34A032812787DD028
:1017F00081E0029800281BDA1846FEF7DAFC08465A
:1018000007466421FEF7D5FCC5B238466421FEF7D1
:10181000D0FC08460A21FEF7CCFCC6B2384664214B
:10182000FEF7C7FC08460A21FEF7C3FCCFB21CE056
:101830000298FEF7BEFCC0B20F4601903846642104
:10184000FEF7B7FCC5B238466421FEF7B2FC084685
:101850000A21FEF7AEFCC6B238466421FEF7A9FCA9
:1018600008460A21FEF7A5FCCFB20420009018E13B
:101870000298FEF79EFCC0B2019008466421FEF774
:1018800098FCC5B20020CD4B002219188A734A7506
:10189000401CC0B20728F8D30220009001E1C849DB
:1018A0000298FEF786FCC0B20190E121090102987E
:1018B000FEF77FFC06460A21FEF77BFCCDB2E12154
:1018C0003046090148430299081A02904B21C90089
:1018D0000298FEF76EFCC6B23C210298FEF769FC46
:1018E0000A21FEF766FCCFB2042000E001E0009080
:1018F000D7E0002A02D003283FD040E00298002819
:101900001BDA1846FEF755FC084607466421FEF729
:1019100050FCC5B238466421FEF74BFC08460A214C
:10192000FEF747FCC6B238466421FEF742FC084683
:101930000A21FEF73EFCCFB21CE00298FEF739FC0C
:10194000C0B20F46019038466421FEF732FCC5B2A2
:1019500038466421FEF72DFC08460A21FEF729FCD3
:10196000C6B238466421FEF724FC08460A21FEF779
:1019700020FCCFB20420009093E0012A04D0914AC9
:101980000428127828D029E08D490298FEF711FC2E
:10199000C0B20190E12109010298FEF70AFC064657
:1019A0000A21FEF706FCCDB2E12130460901484389
:1019B0000299081A02904B21C9000298FEF7F9FB20
:1019C000C6B23C210298FEF7F4FB0A21FEF7F1FBB8
:1019D000CFB20420009064E0062A02D004283FD051
:1019E0005FE0029800281BDA1846FEF7E2FB084683
:1019F00007466421FEF7DDFBC5B238466421FEF7D9
:101A0000D8FB08460A21FEF7D4FBC6B2384664214B
:101A1000FEF7CFFB08460A21FEF7CBFBCFB21CE056
:101A20000298FEF7C6FBC0B20F460190384664210B
:101A3000FEF7BFFBC5B238466421FEF7BAFB084685
:101A40000A21FEF7B6FBC6B238466421FEF7B1FBA9
:101A500008460A21FEF7ADFBCFB20420009020E03B
:101A6000072A1ED10298FEF7A4FBC0B20F460190D0
:101A700038466421FEF79DFBC5B238466421FEF767
:101A800098FB08460A21FEF794FBC6B2384664214B
:101A9000FEF78FFB08460A21FEF78BFBCFB204202E
:101AA0000090002004E1029900290CDA012804D0FA
:101AB000022804D0032804D015E02C4613E0344655
:101AC00011E03C460FE0002806D0012806D002288D
:101AD00006D0032806D006E0019C04E02C4602E074
:101AE000344600E03C460299002901DA002808D07B
:101AF000230000F016FF0A111F3449698095A8BF22
:101B0000CCDB00212D4A00235354491CC9B20529BE
:101B1000FAD301219171C9E00021C200274B121AAA
:101B2000D21801235354491CC9B20629FAD3002103
:101B30009171BBE00021C200204B121AD21801297A
:101B40000AD0022908D000235354491CC9B20629DF
:101B5000F5D300219171A9E001235354F5E7002149
:101B6000C200164B121AD21805290AD0022908D031
:101B700001235354491CC9B20629F5D3012191719F
:101B800094E000235354F5E70021C2000B4B121AD6
:101B9000D21804290AD0052908D001235354491C1E
:101BA000C9B20629F5D3012191717FE00023535476
:101BB000F5E7000008000020B40200200403002024
:101BC000A08C0000090000200021C2003C4B121A2A
:101BD000D21800290CD003290AD0042908D00123E7
:101BE0005354491CC9B20629F3D3012191715DE018
:101BF00000235354F5E70021C200314B121AD218CA
:101C000001290AD0042908D001235354491CC9B220
:101C10000629F5D30121917148E000235354F5E7DB
:101C20000021C200264B121AD218012908D0012324
:101C30005354491CC9B20629F7D30121917135E0EB
:101C400000235370F5E70021C2001D4B121AD21871
:101C500000290CD001290AD0022908D000235354AE
:101C6000491CC9B20629F3D3002191711EE001235A
:101C70005354F5E70021C200114B121AD318012268
:101C80005A54491CC9B20629FAD39A710EE00021B0
:101C9000C2000B4B121AD21804290ED00123535440
:101CA000491CC9B20629F7D301219171401CC0B269
:101CB0000099884200D2F6E6FEBD00231371EFE7DB
:101CC000040300203EB5002401250094234622464B
:101CD0000621032001950294FFF728FB012206212B
:101CE0000320FFF789FB002300941A4605210320F7
:101CF00001950294FFF71AFB012205210320FFF74B
:101D00007BFB0023032100941A46084601950294A8
:101D1000FFF70CFB032101220846FFF76DFB01943E
:101D2000012300220421032000950294FFF7FEFA0C
:101D3000002204210320FFF75FFB0022009401230F
:101D40000221104601950294FFF7F0FA00220221C9
:101D50001046FFF751FB0023009401941A4601211D
:101D600018460294FFF7E2FA0023009401941A4601
:101D7000052102200294FFF7D9FA01210520FEF780
:101D8000BFFE0023009401941A460721022002940A
:101D9000FFF7CCFA0023009401941A460121032096
:101DA0000294FFF7C3FA002201210320FFF724FB6E
:101DB0000022019401230321104600950294FFF7AD
:101DC000B5FA002203211046FFF716FB012202217B
:101DD0000320FFF777FA012206210220FFF772FAAB
:101DE000012203210220FFF76DFA3EBD10B5002449
:101DF00000F032F800F042F8082000F0A0F800F0FF
:101E000019F8082000F09BF801E0641CA4B2052139
:101E10000120FFF74DFA002801D0642CF5D3642C83
:101E200006D000F019F8082000F089F8012010BD54
:101E3000002010BD0EB50020012100900B46024687
:101E40000191029004210120FFF770FA0122042180
:101E50001046FFF7D1FA0EBD0EB50020012100900B
:101E60000B4602460191029004210120FFF75EFA21
:101E7000002204210120FFF7BFFA0EBD10B5012298
:101E800005211046FFF71EFA10BD0EB500200121F6
:101E900000900B4602460191029005210120FFF7B8
:101EA00045FA012205211046FFF7A6FA0EBD0EB530
:101EB0000020012100900B4602460191029005216D
:101EC0000120FFF733FA002205210120FFF794FAE1
:101ED0000EBD10B5FFF7C0FF082000F030F8FFF787
:101EE000E6FF082000F02BF8FFF7A4FF082000F021
:101EF00026F8FFF7B1FF082000F021F8FFF7BEFF3A
:101F0000082000F01CF810BD10B5FFF7A5FF082051
:101F100000F015F8FFF7B9FF082000F010F8FFF700
:101F200089FF082000F00BF8FFF796FF082000F06B
:101F300006F8FFF7BCFF082000F001F810BD00B55F
:101F4000821E002A05D00120FEF7D3FF521E002A70
:101F5000F9D100BD10B5FFF7AAFF0820FFF7EFFF8A
:101F6000FFF768FF0820FFF7EAFFFFF78EFF082062
:101F7000FFF7E5FF10BD000010B5FEF76FFD01494A
:101F8000086010BD000000201CB50220FEF762FEB4
:101F900001210020FEF708FDFFF7EEFF082168464B
:101FA00000F0CDFC01206946487003480190684666
:101FB000FEF73AFF1CBD0000FFFFFF0008B5002040
:101FC000694608700120487088706846FEF78AFDEF
:101FD00001211020FEF726FE01210820FEF722FE37
:101FE00008BD10B5012211460020FFF705FA0122B5
:101FF00005210220FFF700FA012207210220FFF746
:10200000FBF9FFF7A2FB522000F0A8FB302000F004
:10201000A5FB002000F0A2FB0A2000F09FFB02209D
:1020200000F09CFB062000F099FB10BDF8B5544869
:102030000668002E76D053480A21C06BFEF7B9F827
:10204000044651480A2100684E4A4C43411A12780E
:10205000002784421CDA032A1AD0FF234A4AC333DA
:10206000984205DB464B0F2E02D311601F6046E0FD
:10207000FF239133984205DB414B1E2E02D31160A2
:102080001F603CE0FF218731884238DC146036E075
:102090003C4D6B7A00932D7AAB4207D92D2D05D19B
:1020A000FF23FF339C4201DA032A05D0009BAB4299
:1020B00018D9282D10D015E0FF23334AC333984296
:1020C00004DD2F480F2E01D311600760116899427B
:1020D00015DC2C48457212E0FF23FF339C4201DAE5
:1020E000032A20D00099274EA94204D00A21FEF7E6
:1020F00060F8A84202DB0098A84200D87572224816
:1021000020490268944202DB1D4A1760046002689D
:1021100094422CDCFF228732944228DCCA7C012ABC
:1021200023D024E02BE0FF23174AC333984205DB7A
:10213000134B0F2E02D311601F600EE0FF2391336B
:10214000984205DB0E4B1E2E02D311601F6004E087
:10215000FF218731884200DC1460FF201168913034
:102160008142CCDC07484572C9E70460CF7400683F
:10217000844204DBFF209130844200DCCF74F8BD40
:10218000D00200200800002098020020F8B52C485A
:102190002D4C07782B4D0A21A06BFEF70AF8009012
:1021A000FF20F530294EE46B022F01D3844231DD4C
:1021B000844219DD0A212046FDF7FBFF0A2148432E
:1021C0003060002C07DAFDF7F4FF642141430098EA
:1021D000081A2860F8BD0A21FDF7EBFF642141438E
:1021E000009808182860F8BD002C09DA0A2120465A
:1021F000FDF7DFFF642141430098081A2860F8BD0D
:102200000A212046FDF7D5FF6421414300980818B4
:102210002860F8BD3068002808DA0A21FDF7C9FFF8
:10222000642141430098081A2860F8BD0A21FDF78F
:10223000C0FF64214143009808182860F8BD0000E1
:10224000B0020020AC02002008000020980200200C
:10225000FEB56C480A2107686B480197806B0090B7
:102260006948C06BFDF7A5FF0A214843054666484B
:102270000026047A002F06DBC079632803D9FF20EB
:102280009B30854251DA614801688D4208DD282C77
:1022900006D1FF219B318D4202DB05605C490E6057
:1022A0005B4BFF271A688737782A06D30168002915
:1022B00003DA0A3101601E6014E01E2A08D30168A7
:1022C000002905DB642903DA0A3101601E6009E098
:1022D0003C2A07D30168642904DBB94202DC0A31D5
:1022E00001601E600068B84202DD282C00D11E602B
:1022F00000280DDA0A21FDF75CFF074664214F43F1
:102300000A210098FDF755FF391A424801600CE098
:102310000A21FDF74EFF074664214F430A2100982A
:10232000FDF747FF39183B480160FF2136489B31D4
:102330008D4264DB0199002961DB2D2C01D0322C08
:102340005DD1417AA1425AD1304801688D4202DD07
:1023500005602F490E602E4BFF251968C33578297B
:102360000AD3FF2702689137BA4205DBAA4203DA93
:102370000A3202601E602CE0F02908D30268AA42EB
:1023800005DBFF25D735AA4201DC322C16D0FF220F
:102390006932914206D302681546FF3DE13D01D105
:1023A000322C0FD02D221201914212D301680A461D
:1023B000FF3AEB3A0DD1322C08D00AE00A32026023
:1023C0001E6006E00A3202601E6002E00A3101600F
:1023D0001E600068FF21EB31884200DD1E600A4963
:1023E0000122CA740A21FDF7E4FE044664214C432D
:1023F0000A210098FDF7DDFE211806480160FFF76D
:10240000C5FEFEBDE002002008000020980200206A
:10241000CC020020AC0200200649002805D001288B
:1024200005D0022805D18868004708680047486839
:1024300000477047F4020020F8B50020FEF7B6F917
:1024400001287DD10020FEF755F966480024007868
:10245000654D012802D0002804D004E0A889401C62
:10246000A88100E0AC816148614A0078012805D06C
:102470001178012902D0014304D004E06989491C84
:10248000698100E06C81117801435A4821D00480B1
:10249000FEF77EF85848007801281ED0574800788B
:1024A00001281AD056480078002803D055480078F3
:1024B000012812D02C81544E3078002811D06C6243
:1024C00052490A785249002A0FD00A68521C0A6001
:1024D0000CE00188491C0180DAE72889401C28812A
:1024E000E9E7696A491C6962EAE70C60E988491C06
:1024F0008AB2EA807D231B0101219A4201D96970C9
:10250000EC80444A1378444A002B03D013885B1CA8
:10251000138000E014807D27404AFF00032802D08A
:102520001078002847D02869401C2861B8420BD396
:102530006869401C6861A869401CA8612C6100E0C2
:102540004EE0E889401CE881A888401C80B2A88041
:10255000334B984205D92878002813D000202870E2
:10256000AC806888401C80B26880E123DB00984220
:1025700000D96C802B480078002805D0A86A401C40
:10258000A86202E00120EAE7AC6227486B690068B4
:10259000984212D1AC6134701470244804702448FD
:1025A000047024480170002201210320FEF724FF5B
:1025B0002C616C6101E0AC806C803078042806D01E
:1025C0001D480078072802D0286A401C2862286A23
:1025D000B84203D3E869401CE8612C62FFF726FD8E
:1025E000F8BD0000E4020020B4020020E602002052
:1025F000E5020020EA020020190000201A00002055
:102600001500002014000020080000200A0000200F
:102610002C000020220000202400002013000020B5
:10262000881300000C00002030000020E70200208A
:10263000E80200200D0000200900002030B585B020
:102640000024154D0020FEF755F80020FEF792F803
:10265000012203210E20FEF76FFD0120694608705C
:1026600000224A708A70CA700A7148710B48029041
:102670000020FEF7B5F8002800D0012429460020EC
:10268000FEF716F829460020FEF752F80020FEF764
:102690004DF9204605B030BD60F00000392400003F
:1026A0001B4902228B7B08460078012B01D10328AD
:1026B00003D00B7B012B09D010E0C87D0B7E1843A3
:1026C00001D04A737047002048737047032805D033
:1026D000104B086A984201D94A7370470E4AC86B7A
:1026E000904206D00D4B8A6B9A4202D00A7C022A95
:1026F00002D30120487370476422D04202DC0320D9
:1027000048737047064A9042FBDB042048737047C9
:102710000800002050910000DB050000E7030000E6
:102720001202000010B506484068000606D500F009
:102730000BF804480068002800D0804710BD000056
:10274000800C00400003002003481E210160E121AD
:102750000160002070470000800C004010B5044666
:10276000002201211046FEF747FEFEF7EEFF04218E
:10277000802000F029F80821204600F025F80122E9
:1027800011460020FEF738FEFEF7DFFF10BD70B5E2
:1027900004460D46002201211046FEF72DFE0321BE
:1027A000A02000F011F8A006000E062100F00CF8A1
:1027B0000421284600F039F8012211460020FEF7D6
:1027C0001BFEFEF7C2FF70BD70B505460E46002425
:1027D0001EE0002205210220FEF70EFE280605D588
:1027E000012207210220FEF707FE04E00022072154
:1027F0000220FEF701FEFEF7A8FFFEF7A6FF01226A
:1028000005210220FEF7F8FD6806050E641CE4B2FF
:10281000B442DED3002205210220FEF7EDFD0022A6
:1028200007210220FEF7E8FD70BD70B505460E4693
:1028300000241DE0002205210220FEF7DDFDE8074F
:1028400005D0012207210220FEF7D6FD04E0002278
:1028500007210220FEF7D0FDFEF777FFFEF775FF98
:10286000012205210220FEF7C7FD6D08641CE4B2B9
:10287000B442DFD3002205210220FEF7BDFD002275
:1028800007210220FEF7B8FD70BD70B50026FFF7E6
:10289000E3FAFFF7F3FA0820FFF751FB0024FFF7F4
:1028A000C9FAFEF707FB002505210120FEF700FD10
:1028B000002800D0012570002843C6B2FFF7CCFAEB
:1028C000FEF7F8FA641CE4B2082CE8D3FFF7D6FA56
:1028D0000820FFF734FB304670BD70B504468026F3
:1028E0000025FFF7B9FAFEF7F6FA264202D0FFF705
:1028F000CCFA01E0FFF7DBFAFFF79CFAFEF7EBFA00
:102900006006040E6D1CEDB2082DEAD3FFF7A4FAA1
:102910000820FFF714FBFFF7B1FA0820FFF70FFBC1
:1029200070BD30B47446641E2578641CAB4200D27E
:102930001D46635D5B00E31830BC184770470028F4
:1029400006D0002201E00270401C491E4B1CFAD147
:1029500070470000F8B504460B48002601270068C0
:10296000084D3F06009008E0AE6108490098FDF769
:1029700016FC381AA9698142FCD8641E601CF3D188
:10298000F8BD000000E000E000000020102700007B
:10299000F8B504460B48002601270068084D3F069D
:1029A000009009E0AE617D21C9000098FDF7F7FBBA
:1029B000381AA9698142FCD8641E601CF2D1F8BDA6
:1029C00000E000E000000020F8B502210320FEF73F
:1029D0006FFC01270025DA4CDA4E00280ED10621C3
:1029E0000220FEF765FC012808D103210220FEF732
:1029F0005FFC012802D12078002808D0D248D349B2
:102A0000008888420ED32178012907D00AE0277078
:102A1000002206210320FEF7EFFC6DE0CC49097887
:102A2000002907D07D21C900884238D321780129A7
:102A30001FD034E0022020703078002802D0042813
:102A400010D013E004203070C24905200870002225
:102A500001210320FEF7D0FC002203211046FEF7DF
:102A6000CBFC03E03570BB4805210170BA48077004
:102A700042E03178042912D002202070B44908784D
:102A8000002801D1B54A1560002806D00020087042
:102A9000B1480770B24807702EE00120F7E71E2802
:102AA0000BD302210320FEF703FC012805D1207877
:102AB000012802D13078042806D002210320FEF735
:102AC000F7FB012812D017E002202070A2480770FF
:102AD000A04905200870002201210320FEF78CFC8C
:102AE000002203211046FEF787FC05E02570012235
:102AF00006210320FEF780FC03210220FEF7D8FB0D
:102B000000281BD102210320FEF7D2FB012815D19A
:102B100006210220FEF7CCFB01280FD160780028A7
:102B20000CD18B480078012804D0002806D13078D9
:102B3000042803D18B480078002803D0607801284E
:102B400007D04BE06770002205210320FEF754FCFC
:102B500050E0854800881E2840D3022161707E48DD
:102B600007703078042808D0002814D001281DD020
:102B7000022822D0032823D03CE0764806210170A9
:102B8000012211460320FEF737FC01220321002019
:102B9000FEF732FC2EE037702571744801787448D6
:102BA0000160E078002825D1E77023E031702571BD
:102BB00070480168704801601CE00320307019E023
:102BC000377025716D480570E7706D48077069486A
:102BD00001686C480068081AA0600BE0032102201D
:102BE000FEF766FB012805D165700122052103204F
:102BF000FEF702FC06210220FEF75AFB002819D13D
:102C000002210320FEF754FB012813D103210220E7
:102C1000FEF74EFB01280DD14D480078012805D064
:102C2000A078002806D13078042803D14D480078D8
:102C3000002803D0A078012807D053E0A770032113
:102C400000220846FEF7D8FB58E0474800881E28B7
:102C500048D30220A070404807704B480560307888
:102C6000042804D0012810D0022822D046E0394898
:102C700007210170002201210320FEF7BDFB012284
:102C800003210020FEF7B8FB38E0394801683229FB
:102C900002DA491D016001E028210160334A006821
:102CA000117881422AD01070E078002826D1E77090
:102CB00024E03149354A0868904204DAE122D20121
:102CC0008018086001E0324808602A4A09681068E4
:102CD000884213D011602B480560E07800280DD1A0
:102CE000E7700BE006210220FEF7E2FA012805D189
:102CF000A570032101220846FEF77EFBE0782549F6
:102D000001280ED000280BD12079002808D1E088B6
:102D1000884205D93078012801D0022800D13570C9
:102D2000F8BD20790028FBD1E0888842F8D93078B6
:102D3000012801D00228F3D103203070F8BD000033
:102D4000E402002008000020C002002088130000D8
:102D5000140000200900002019000020CC020020EF
:102D60002100002015000020BE02002010000020DD
:102D7000A802002030000020A4020020B40200209D
:102D800013000020C8020020D802002080F40300B5
:102D900080700000102700002D20FFF7F9FDFEF7DE
:102DA000CCFCFFF74BFCFFF71CF9FDF7DBFDFEF752
:102DB000EDFBFEF701FAFEF733FA0C480C490078F8
:102DC00008700C480C49006808600420FFF7E0FD1B
:102DD000FFF766FCFFF7F8FDFEF7EEF9FEF720FAC5
:102DE000FFF75EFC00F00AF8F4E700001000002096
:102DF000110000203C00002038000020F8B5BF4D35
:102E0000BF4F287BBF4C002600281AD00122022188
:102E10000020FEF7F1FA687B00287AD01C21BA481E
:102E2000FFF78DFD0821B948FFF789FD0022012138
:102E30000320FEF7E1FA002203211046FEF7DCFA38
:102E400059E12878042826D02E70B148A8622D2098
:102E50002872AE72EE62AF480660012068712E7172
:102E6000AE73AD480670EE723E70AC480660EE7010
:102E70002E75FDF777FD002202211046FEF7BCFA01
:102E8000002201210320FEF7B7FA00220321104699
:102E9000FEF7B2FA2FE16878002804D0012202215F
:102EA0000020FEF7A9FA6878062802D007281FD06C
:102EB00021E10A21E86BFDF77CF90A2141430AD59B
:102EC00006466421A86B4E430A214042FDF771F982
:102ED0003018206008E0064664214E430A21A86BA2
:102EE000FDF767F9301820602068FEF76DFC02E1FD
:102EF000FF21286A4B3148438949FDF750F9642185
:102F0000FDF74DF9642148432060FEF75DFCF2E0D7
:102F1000FFE72878002807D0012808D08149022837
:102F20000BD003280CD00EE0FFF730F91AE07E48F2
:102F3000642100684843206014E00868206011E0C4
:102F40003A78002A02D0032803D00BE0FFF780F97B
:102F500008E03878012805D17048AA6A0068101A7C
:102F6000086020606B4871490068884202D92E735E
:102F70000120A8742878032802D0E87A00287DD0A0
:102F8000012211460320FEF737FA694F286A796C4F
:102F90000090814206D80A21E86BFDF70AF9297AE8
:102FA000884209DD002203211046FEF725FA2E7122
:102FB00060480660EE739BE0B969009881426AD868
:102FC000012203210020FEF717FA012028716879F9
:102FD000002815D00120A8760020AB8B2F6A05E0D1
:102FE0007D21C9008B4207D2401CC0B243498200F8
:102FF00040318958B942F3D8AE76AE83A8716E716C
:103000000127AF7600203D498A8B0B6A05E07D21C0
:10301000C9008A4207D2401CC0B2384985004031FD
:1030200049599942F3D8354DAE76AE83E871414A9D
:10303000414B116899425BD9A979411A022902DBF7
:10304000A871EE730AE0E97B052903D24F2801D865
:10305000491CE97329464F2800D9CE73E87B05281F
:1030600000D3AF7316600A21E86BFDF7A2F80A21BE
:1030700048436863411EFF22903200E02EE09142F7
:1030800013D8A97B002910D0296B411A0A2903DB28
:10309000EE736E7528632BE0687D401CC0B26875C6
:1030A000022825D3EF756E7522E00146FF399B3962
:1030B0005A291DD8A97B00291AD0296B091A64291D
:1030C00003DAEE73AE75286312E0A87D401CC0B22F
:1030D000A87503280CD32F76AE7509E000220121D4
:1030E0000320FEF789F9002203211046FEF784F938
:1030F0002068FEF769FBFDF705FFF8BD080000201A
:10310000B4020020AC020020040300209C02002036
:1031100080F40300D8020020E7020020C80200204B
:10312000FF0F0000A4020020A802002020BF020020
:1031300048020020DC020020C0D401000080000012
:10314000009600006431000000000020040300002D
:10315000580300002C330000040300208C01000001
:10316000040100007400093D420532010218327367
:103170000F270317605433239233569133819033D2
:10318000A38F33BC8E33CC8D33D28C33D08B33C3EF
:103190008A33AE89338F8833658733338633F78438
:1031A00033B183336382330A8133AA7F333F7E3363
:1031B000CE7C33527B33CE7933457833B0763318B7
:1031C0007533757333D071332470336F6E33B86CCD
:1031D00033F86A33396933716733AB6533DF63338F
:1031E000156233416033745E33A25C33D35A3304C7
:1031F00059332C5733605533975343CC51325033A6
:103200003B4E33794C43BB4A3249334B47339B45A2
:1032100033EF43334A4233AA40330F3F337C3D33CD
:10322000EE3B33683A33E838336F3733FE35339348
:1032300034332E3333D331337C30332E2F33E92DD7
:1032400033A92C33712B33402A33162933F4273317
:10325000DA2633C52533B72433B12333B22233BA48
:103260002133C62033DB1F33F51E33161E33401DBA
:10327000336C1C339E1B33D81A33161A335B193345
:10328000A31833F217334517339D1633FC15335DFE
:103290001533C61433301433A013331513338B1284
:1032A000330812338A11330E113394103321103343
:1032B000B00F33420F33D60E336F0E330B0E33A9DC
:1032C0000D334B0D33F00C33970C33400C33ED0BB7
:1032D000339C0B334D0B33010B33B60A336F0A3378
:1032E000290A33E50933A30933640933260933EA8C
:1032F0000833AF08337708334008330A0833D6075A
:1033000033A40733730733440733160733E906330F
:10331000BE06339306336A06334206331B0633F682
:0C3320000533D10533AD0503778B0500A4
:0400000500000004F3
:00000001FF
