:10000000800400204901000063010000CD130000BE
:1000100000000000000000000000000000000000E0
:100020000000000000000000000000006701000068
:100030000000000000000000690100006B010000EA
:10004000151400001F1400002914000033140000D0
:100050006D0100006D0100003D1400004714000018
:100060006D0100006D010000511400006D010000E1
:100070005B1400006D010000651400006F140000A7
:10008000791400006D010000831400008D1400003D
:1000900097140000A1140000AB1400006D010000D3
:1000A000B51400006D010000BF140000C914000069
:1000B000D31400006D010000DD140000E7140000FF
:1000C00000F002F800F030F80CA030C8083824180E
:1000D0002D18A246671EAB4654465D46AC4201D180
:1000E00000F022F87E460F3E0FCCB6460126334282
:1000F00000D0FB1AA246AB4633431847EC2F000052
:100100000C3000000023002400250026103A01D303
:1001100078C1FBD8520700D330C100D50B607047BF
:100120001FB51FBD10B510BD00F0EAF81146FFF76E
:10013000F7FF02F00BFE00F002F903B4FFF7F2FF45
:1001400003BC02F0B5FB00000C480D4A002100A1E1
:10015000814200D902440B4802600B4880470B489B
:100160000047FEE7FEE7FEE7FEE7FEE7FEE70000EA
:1001700007480849064A084B704700000000002065
:100180000000000008ED00E02D1F0000C10000008D
:10019000800300208004002080030020704700229C
:1001A00003098B422CD3030A8B4211D300239C46B4
:1001B0004EE003460B433CD4002243088B4231D32C
:1001C00003098B421CD3030A8B4201D394463FE0C0
:1001D000C3098B4201D3CB01C01A524183098B4220
:1001E00001D38B01C01A524143098B4201D34B0109
:1001F000C01A524103098B4201D30B01C01A52416C
:10020000C3088B4201D3CB00C01A524183088B42F2
:1002100001D38B00C01A524143088B4201D34B00DB
:10022000C01A5241411A00D201465241104670474D
:100230005DE0CA0F00D04942031000D34042534052
:1002400000229C4603098B422DD3030A8B4212D312
:10025000FC22890112BA030A8B420CD38901921144
:100260008B4208D3890192118B4204D389013AD081
:10027000921100E08909C3098B4201D3CB01C01A56
:10028000524183098B4201D38B01C01A5241430969
:100290008B4201D34B01C01A524103098B4201D357
:1002A0000B01C01A5241C3088B4201D3CB00C01AC4
:1002B000524183088B4201D38B00C01A5241D9D2DC
:1002C00043088B4201D34B00C01A5241411A00D25D
:1002D0000146634652415B10104601D34042002B59
:1002E00000D54942704763465B1000D3404201B5D8
:1002F0000020C046C04602BD704770477047704737
:10030000754600F025F8AE46050069465346C0081C
:10031000C000854618B020B5FFF72AFF60BC002753
:100320004908B6460026C0C5C0C5C0C5C0C5C0C5C1
:10033000C0C5C0C5C0C5403D49008D46704710B519
:100340000446C046C0462046FFF7F7FE10BD000039
:10035000004870471C03002030B58C180278401C00
:1003600013071B0F01D10378401C120906D1027834
:10037000401C03E00578401C0D70491C5B1EF9D140
:1003800001E00B70491C521EFBD1A142E6D30020B4
:1003900030BD000002488168C213914381607047FC
:1003A0000024004010B500292CD000282AD00122BA
:1003B0000270154883680415234383604368F02462
:1003C000A3430C782407240E234343608368C4149A
:1003D000A3438C78E407240D234383608B78002BA0
:1003E00003D08368C413234383600B789A40C260B0
:1003F000C268FF231B0249789A4309020A43C2607C
:10040000002010BD042010BD0024004002484168B7
:10041000012211434160704700240040002806D0AB
:10042000044949690903090B016000207047042051
:10043000704700004024004070B5174D286A174CE3
:10044000400707D56068002800D08047686A04210B
:1004500088436862286A800707D5A068002800D012
:100460008047686A022188436862286AC00707D00B
:10047000E068002800D08047686A40084000686251
:10048000286A000707D52068002800D08047686ADE
:1004900008218843686270BD402400400C0300209E
:1004A00010B5002856D02C494A680C239A4343784B
:1004B0009B071B0F1A434A604A680323DB029A43D7
:1004C00083789B07DB0C1A434A604A6803231B02AC
:1004D0009A43C3789B079B0D1A434A604A680B15E1
:1004E0009A430379DB075B0D1A434A601A4A40328C
:1004F000936904891B0B1B032405240D234393617B
:10050000D36984891B0B1B032405240D2343D3616A
:100510008A68037C52095201DB06DB0E1A438A60AB
:100520008A681F23407C5B01C0069A43800D02430A
:100530008A604A68081482434A608A6882438A60F3
:1005400088684A149043886088688A149043886059
:10055000002010BD042010BD002400400748416A5F
:10056000082291434162054840384168C213114353
:1005700041604168022211434160704740240040BD
:1005800002484168022291434160704700240040C4
:1005900070B52D4E2B4C3088E27B0025411E012A80
:1005A0000CD0227C002A28D0FF22F432914218D8A5
:1005B00001220421032000F0F1FE70BD312905D88D
:1005C00001220421032000F0E9FE70BD3228FCD98D
:1005D00000220421032000F0E1FE35800220E073B8
:1005E00070BDFF21F5318842FAD900220421032091
:1005F00000F0D4FE3580257470BDE27A002A1BD04D
:10060000A27A002A18D0114A914205D80122042169
:10061000032000F0C3FE70BD0D494118914205D87A
:1006200000220421032000F0B9FE70BD19218901C8
:100630008842FAD9358070BD00220421032000F0E1
:10064000ADFE70BD08000020BC0200201F030000AA
:10065000DFFCFFFF00220F4B002806D001280AD044
:1006600002280ED00122104670471868000C0004C2
:1006700008431860F7E7186A000C00040843186282
:10068000F1E70448403003681B0C1B040B43036074
:10069000E9E70000000C004000210D4A002806D0C8
:1006A000012809D002280CD0012108467047506962
:1006B000400840005061F8E7506B4008400050632C
:1006C000F3E7034840304269520852004261ECE7C8
:1006D000000C004000220F4B002806D001280AD051
:1006E00002280ED00122104670475868000C000402
:1006F00008435860F7E7586A000C00040843586242
:10070000F1E70448403043681B0C1B040B43436073
:10071000E9E70000000C004000210C4B1A150028EE
:1007200006D0012808D002280AD0012108467047C7
:10073000D8681043D860F9E7D86A1043D862F5E763
:1007400002484030C3681343C360EFE7000C004029
:10075000014600200A4A002909D001290BD00229AC
:1007600004D1074840300069C007C00F70471069C6
:10077000C007C00F7047106BC007C00F7047000064
:10078000000C0040F0B500234F4A02245515961581
:100790007027002806D0012834D0022862D0012317
:1007A0001846F0BDD068A8430D78ED07AD0D28437D
:1007B000D060D0684D78B043ED07ED0D2843D06090
:1007C000D0688D78B8436D076D0E2843D060D0682F
:1007D0000825A843CD78ED072D0F2843D060D068B9
:1007E0000425A8430D79ED076D0F2843D060D0682C
:1007F000A0434C79E407A40F2043D06033488968B4
:100800000160CDE7D06AA8430D78ED07AD0D284310
:10081000D062D06A4D78B043ED07ED0D2843D06229
:10082000D06A8D78B8436D076D0E2843D062D06AC8
:100830000825A843CD78ED072D0F2843D062D06A54
:100840000425A8430D79ED076D0F2843D062D06AC7
:10085000A0434C79E407A40F2043D0621B48C96829
:1008600041609DE718484030C268AA430D78ED0703
:10087000AD0D2A43C260C2684D78B243ED07ED0D5D
:100880002A43C260C2688D78BA436D076D0E2A4351
:10089000C260C2680825AA43CD78ED072D0F2A4310
:1008A000C260C2680425AA430D79ED076D0F2A4383
:1008B000C260C268A2434C79E407A40F2243C2601D
:1008C0000248096981606BE7000C0040E4020020E7
:1008D000002101220B4B002806D0012808D0022855
:1008E0000AD0012108467047D8681043D860F9E75C
:1008F000D86A1043D862F5E702484030C368134312
:10090000C360EFE7000C004010B500240021204632
:1009100001F0F7FE641CE4B2162CF7D310BD000002
:100920000348024981600349816070475A5A0000B8
:1009300000200040A5A5000003480F220168D20254
:10094000914301607047000000200040F8B5054663
:100950000E460024FFF7E4FF002E01D0012000E046
:100960000020194B002D27D00426012D0DD0022D7B
:1009700004D0FFF7E1FF04242046F8BD1968C00742
:10098000B143400F01431960F6E7104AD568C1072B
:100990000227C90FBD4348000543D560D5688900CB
:1009A000B5430D43D56019690F22114319611968C8
:1009B000B94301431960DFE71968C00749084900D6
:1009C000C00F01431960D7E700200040000D02402E
:1009D00001460020094A002907D0012909D002292F
:1009E00002D15069C004C00F7047D0680005C00F25
:1009F000704710694006C00F70470000002000409B
:100A00000EB5002018A109680291184906C9019283
:100A10000091174A11688906890F002904D001291D
:100A20001CD002291BD112E0D06802A94005800F1A
:100A3000085C104948431049884210D10F49498841
:100A4000D3685B055B0D8B4209D10D4807E0506907
:100A500069468005C00F8000085800E00948116809
:100A6000C905490FC8400EBD04081018E030000049
:100A70000020004040420F0000366E01000C1000C4
:100A8000408651010048E80110B50446207800F086
:100A900059F9607800F052F8A07800F077F800205B
:100AA00010BD000070B505460E460024FFF738FF64
:100AB000002E01D0012100E000211F482B0001F091
:100AC000EAFE06040D151D252D3602680123DB0301
:100AD000C9079A43090C0A4302602BE042680223CB
:100AE000C9079A43890F0A43426023E042681023F2
:100AF000C9079A43C90E0A4342601BE0426840237B
:100B0000C9079A43490E0A43426013E042688023B2
:100B1000C9079A43090E0A4342600BE04268FF236B
:100B20000133C9079A43C90D0A43426002E0FFF747
:100B300003FF0424204670BD0020004010B5044689
:100B4000102C11D008DC012C0ED0022C0CD0042C5F
:100B50000AD0082C06D107E0202C05D0402C03D069
:100B6000802C01D0042010BDFFF7DAFE204600F0F3
:100B7000ACFD054A1168FF23C13340079943C00DFE
:100B800001431160002010BD0020004010B5044654
:100B9000012C07D0022C05D0042C03D0082C01D046
:100BA000042010BDFFF7BCFE204600F08EFD054A74
:100BB000116803235B0280079943400D01431160D4
:100BC000002010BD0020004010B503460020002981
:100BD00001D0012200E000220121064C9940002AA8
:100BE00003D0226A0A43226210BD226A8A4322622B
:100BF00010BD00000020004010B504460020A41ED7
:100C00001B4A1C49230001F046FE05040D161F284F
:100C100031001289CB685205520DDB0ADB02134307
:100C2000CB6010BDD288CB685205520DDB0ADB02C7
:100C30001343CB6010BD9288CB685205520DDB0A7E
:100C4000DB021343CB6010BD5288CB685205520DB6
:100C5000DB0ADB021343CB6010BD1288CB68520560
:100C6000520DDB0ADB021343CB6010BD042010BD24
:100C7000000C10000020004000210323114A9B02B9
:100C8000002808D001280AD002280FD0032814D049
:100C9000042108467047506998435061F9E750694C
:100CA000984301239B02C0185061F2E750699843B2
:100CB0000123DB02C0185061EBE750691843506113
:100CC000E7E700000020004070B504460025FFF76C
:100CD00027FE002C08D0012C06D0022C04D0FFF7F0
:100CE0002BFE0425284670BD044908683022904335
:100CF000A207920E10430860F4E7000000200040B5
:100D000000210F4A3023032808D004280AD00528E0
:100D10000DD0062810D0042108467047106998436A
:100D20001061F9E71069984310301061F4E7106919
:100D3000984320301061EFE7106918431061EBE72A
:100D400000200040F8B504461C4800688006860F65
:100D5000002C0CD0012C03D0022C05D00420F8BDAF
:100D60000620FFF7CDFF02E00320FFF785FF154DBA
:100D70001348E8621448E8620427012C01D0012ED0
:100D800002D1286A3843286201212046FFF7DEFDA0
:100D90002046FFF71DFE0028FAD02046FFF794FFFB
:100DA00000213046FFF7D2FD012C02D0286AB8435B
:100DB000286201F0B3F80020F8BD000000200040D8
:100DC0005A5A000000000240A5A5000000280FD0DC
:100DD0001E4A116AD30219431162017803239B064C
:100DE000002907D0012913D002290AD00420704716
:100DF00004207047516B99430123DB06C9185163E6
:100E000009E0516B994301239B06C918516302E025
:100E1000516B19435163516B01235B06994343782E
:100E2000DB079B091943516341680948491E416129
:100E30000849CA691202120A43041A43CA6100210E
:100E40008161012101610020704700000020004005
:100E500000E000E004ED00E000B5012000F01BF828
:100E6000012000F018F8012000F015F8012000F032
:100E700012F8012000F00FF800BD00B5012000F0CD
:100E80000AF8012000F007F8012000F004F8012022
:100E900000F001F800BD03E00021491C0229FCD349
:100EA000401E411CF8D17047FEB500230193029308
:100EB0000093814801220678804881490078814C5E
:100EC000002E76D0804D2D78002D2ED0012D06D00D
:100ED000022D10D0032D16D0042D1BD07FE0CA7137
:100EE0008A72CA720A734A738A73CA730A744A741A
:100EF0008A74CA7473E0CA718A72CA720A734A73B6
:100F0000CA730A746BE08A72CA720A734A748A746A
:100F1000CA7464E00A724A72CA720A734A73CA7364
:100F20000A748A74CA740A7559E0002801D1012E26
:100F300008D001280DD0022812D0644D03282D7846
:100F400015D016E02270A2706370E3702371A37154
:100F500045E022702271A3706370E370A3713EE0DC
:100F60006270E2702370A3702371A37137E0002DCB
:100F700002D0032807D032E0A2712270A270637001
:100F8000E37023712BE0012D29D15148514E008887
:100F9000451EB54201D2627004E0E125AD00A842D1
:100FA00000D96370A2712370A370E370237116E0FF
:100FB000FFE7042850D000200B540A18D371937314
:100FC0005375401CC0B20728F6D3002023542218C2
:100FD000937013719371401CC0B20228F6D30020A5
:100FE00001AD0A18D6790B5C76003343967B527DAF
:100FF000B600D200164333432B54401CC0B207281E
:10100000EFD30026A95D304601F07BFB761CF6B2DB
:10101000062EF7D36846817A0D2001F072FB00207E
:101020006B4621188D78225C6D002A430D798979F1
:10103000AD00C9000D432A431A54401CC0B2022817
:10104000EFD3684601780E2001F05BFB68464178DB
:101050000F2001F056FBFEBD1F48007805280ED07A
:10106000062821D00728BAD10020235422189370D3
:1010700013719371401CC0B20228F6D3AFE7002071
:101080000A540B18DA719A735A75401CC0B20728BB
:10109000F6D30020225423189A701A719A71401CBA
:1010A000C0B20228F6D39AE72270A2706370E37090
:1010B0002371A37193E700001200002008000020B4
:1010C000F00200209402002013000020AC02002057
:1010D000B6020020830300000900002070B543B26F
:1010E000C506ED0E0124AC40002B01DB174D2C6032
:1010F0008007C00EFF2585408907090E8140002B1F
:1011000008DB9E081248B60030180668AE430E434E
:1011100006600AE01807000F083886080D48B60078
:101120003018C669AE430E43C661012A08D0002BB1
:1011300005DB09480460BFF34F8FBFF36F8F70BDAD
:10114000002BFCDB04488038046070BD80E200E0C6
:1011500000E400E000ED00E080E100E070B5FFF7A2
:10116000FDF9164C0120A07015497D22206AD2009D
:101170000B6A1B0701D49042FAD34B6A0825AB4394
:101180004B620021904206D32162A170FFF702F961
:10119000FFF7F6F970BD2162A17008481C30FFF717
:1011A0003DF9FFF7F7F8FFF7EBF9E0690A2148434B
:1011B0000921FEF7F4FFE06170BD00000800002087
:1011C00040240040F8B51B4E1B4F30781B4D1C4C83
:1011D000002802D1387800281BD11A4800F0E2F923
:1011E00018487D220168D2005143174A090D116049
:1011F00040687D2109014843000DFF38F53828601B
:1012000000203070012038702078032801D2401C63
:101210002070207803280BD10C49286808600C4DF9
:101220000A21FEF7C6FF0A214843286004202070E7
:101230000120F8BDAD020020040000203C00002089
:10124000A80200208802002038000020D0020020E0
:1012500090020020034A800180184068C840C007FF
:10126000C00F7047000D024070B506460D4614468B
:101270001449086ACA03104308620022294630460E
:1012800000F078F8B001AA000F4B00218218D218A4
:1012900011600E490123AB404018002C03D00168B7
:1012A0001943016002E0016899430160016A9943B2
:1012B0000162416A99434162C16A9943C162002057
:1012C00070BD000000200040000C0240000D0240F4
:1012D000F0B504460F4616461D462348016AC20370
:1012E0001143016200223946204600F043F8A00174
:1012F000BA001E4B00218218D21811601C4901242B
:10130000BC404018002E03D001682143016002E078
:101310000168A14301600799002903D0C1692143F5
:10132000C16102E0C169A143C161002D03D0016A1E
:101330002143016202E0016AA1430162059900298B
:1013400003D0416A2143416202E0416AA143416204
:101350000699002903D0C16A2143C16202E0C16A33
:10136000A143C1620020F0BD00200040000C0240FB
:10137000000D024010B50123074C8B40800100197D
:10138000002A03D0C1681943C16002E0C1689943D3
:10139000C160002010BD0000000D024010B5002A01
:1013A00001D0012300E000230122074C8A40800184
:1013B0000019002B03D081681143816010BD816842
:1013C0009143816010BD0000000D024008B500206F
:1013D000009000980028FCD008BD10B500F027FD53
:1013E000082000F07EFD00F0F7FC082000F079FDF9
:1013F00000F02FFD082000F074FD00F0FFFC082035
:1014000000F06FFD10BD00000148006800470000BB
:10141000E002002010B50020C046C04610BD10B547
:101420000120C046C04610BD10B50220C046C046CF
:1014300010BD10B50320C046C04610BD10B5002039
:10144000C046C04610BD10B50120C046C04610BD04
:1014500010B50020C046C04610BD10B50020FFF7F3
:10146000D3FF10BD10B5002000F0A8FF10BD10B5CF
:10147000012000F0A3FF10BD10B5022000F09EFF78
:1014800010BD10B50420C046C04610BD10B50520E3
:10149000C046C04610BD10B50620C046C04610BDAF
:1014A00010B50020C046C04610BD10B50020C04693
:1014B000C04610BD10B50020FEF7BEFF10BD10B530
:1014C0000020C046C04610BD10B50120C046C04631
:1014D00010BD10B50020C046C04610BD10B500209C
:1014E000C046C04610BD10B50020C046C04610BD65
:1014F0003EB50024012500942B46224605212846AE
:1015000001950294FFF7E4FE012205211046FFF742
:1015100045FF0123009400220421184601950294FE
:10152000FFF7D6FE012204211046FFF737FF3EBD2C
:1015300010B5FFF7DDFFFFF750FF702001F087F9CE
:1015400000F026FCA82001F082F900F021FC002028
:1015500001F07DF900F01CFC002001F078F900F0AA
:1015600017FC00F0C9FC0E4800F0BBFCFFF735FF8C
:10157000702001F06CF900F00BFCE12001F067F93C
:1015800000F006FC082001F062F900F001FC0020E8
:1015900001F05DF900F0FCFB00F0AEFC10BD0000B6
:1015A0001E2B0000F0B587B0054600200690059080
:1015B00004900390029001900026002400F06BF844
:1015C0002A4F0DE0384600F08CFC032C06D3284946
:1015D0000878022808D2401C087005E0641CA4B2F8
:1015E00000F048F8C009EDD1FFF7F7FE712001F0D7
:1015F0002EF900F0CDFB01F002F9069000F03BFC63
:1016000001F0FDF8059000F036FC01F0F8F80490C8
:1016100000F031FC01F0F3F8039000F02CFC01F035
:10162000EEF8029000F027FC01F0E9F8019000F0DC
:101630003DFC00F061FC6946087D06433002097CF0
:10164000084300026946097B08430009286069468F
:10165000087B0002097A08430002694609790843B9
:101660000003000B686007B0F0BD0000E405000057
:101670001600002010B5FFF7B0FE712001F0E7F86A
:1016800000F086FB01F0BBF8044600F00FFC00F010
:1016900033FC204610BD10B5FFF79FFE702001F00F
:1016A000D6F800F075FBAC2001F0D1F800F070FB2B
:1016B000332001F0CCF800F06BFB002001F0C7F8FC
:1016C00000F066FB00F018FC10BD0021002802D1DC
:1016D0007047491C40080128FBD80846704710B5E0
:1016E00000F03EFC00F0C0FA00F008F810BD002049
:1016F000401CC0B20228FBD37047000030B587B051
:10170000142102A801F0D5F8032101A801F0D1F8B5
:10171000012204210220FFF72DFEFEF777FE12487A
:10172000016801252943016001680222914301609B
:10173000012001F0C9F868460572002444728472E1
:101740000321C17204730476447602A8FEF7A8FE52
:101750006846047108214171857101A902A8FEF74C
:1017600021FE07B030BD000000240040F1B582B07A
:1017700000200090F848029A00787D21C900534269
:10178000002808D0012845D002285AD0F34A03285F
:1017900012787DD081E0029800281BDA1846FEF707
:1017A00008FD084607466421FEF703FDC5B238462A
:1017B0006421FEF7FEFC08460A21FEF7FAFCC6B2D9
:1017C00038466421FEF7F5FC08460A21FEF7F1FCD5
:1017D000CFB21CE00298FEF7ECFCC0B20F460190BD
:1017E00038466421FEF7E5FCC5B238466421FEF7B1
:1017F000E0FC08460A21FEF7DCFCC6B2384664214C
:10180000FEF7D7FC08460A21FEF7D3FCCFB204202E
:10181000009018E10298FEF7CCFCC0B20190084697
:101820006421FEF7C6FCC5B20020CD4B002219187A
:101830008A734A75401CC0B20728F8D30220009072
:1018400001E1C8490298FEF7B4FCC0B20190E12161
:1018500009010298FEF7ADFC06460A21FEF7A9FC35
:10186000CDB2E1213046090148430299081A02909D
:101870004B21C9000298FEF79CFCC6B23C2102989D
:10188000FEF797FC0A21FEF794FCCFB2042000E09B
:1018900001E00090D7E0002A02D003283FD040E0CA
:1018A000029800281BDA1846FEF783FC0846074614
:1018B0006421FEF77EFCC5B238466421FEF779FC50
:1018C00008460A21FEF775FCC6B238466421FEF7C9
:1018D00070FC08460A21FEF76CFCCFB21CE00298AF
:1018E000FEF767FCC0B20F46019038466421FEF750
:1018F00060FCC5B238466421FEF75BFC08460A214D
:10190000FEF757FCC6B238466421FEF752FC084683
:101910000A21FEF74EFCCFB20420009093E0012A8A
:1019200004D0914A0428127828D029E08D490298E1
:10193000FEF73FFCC0B20190E12109010298FEF7D9
:1019400038FC06460A21FEF734FCCDB2E1213046D0
:10195000090148430299081A02904B21C9000298D4
:10196000FEF727FCC6B23C210298FEF722FC0A21B2
:10197000FEF71FFCCFB20420009064E0062A02D0DC
:1019800004283FD05FE0029800281BDA1846FEF7D3
:1019900010FC084607466421FEF70BFCC5B238462A
:1019A0006421FEF706FC08460A21FEF702FCC6B2D7
:1019B00038466421FEF7FDFB08460A21FEF7F9FBD5
:1019C000CFB21CE00298FEF7F4FBC0B20F460190C4
:1019D00038466421FEF7EDFBC5B238466421FEF7B8
:1019E000E8FB08460A21FEF7E4FBC6B2384664214C
:1019F000FEF7DFFB08460A21FEF7DBFBCFB204202F
:101A0000009020E0072A1ED10298FEF7D2FBC0B258
:101A10000F46019038466421FEF7CBFBC5B238462D
:101A20006421FEF7C6FB08460A21FEF7C2FBC6B2D8
:101A300038466421FEF7BDFB08460A21FEF7B9FBD4
:101A4000CFB204200090002004E1029900290CDAB2
:101A5000012804D0022804D0032804D015E02C4625
:101A600013E0344611E03C460FE0002806D0012880
:101A700006D0022806D0032806D006E0019C04E028
:101A80002C4602E0344600E03C460299002901DA87
:101A9000002808D0230000F0FEFE0A111F34496917
:101AA0008095A8BFCCDB00212D4A00235354491C4C
:101AB000C9B20529FAD301219171C9E00021C20000
:101AC000274B121AD21801235354491CC9B20629B4
:101AD000FAD300219171BBE00021C200204B121A01
:101AE000D21801290AD0022908D000235354491CD6
:101AF000C9B20629F5D300219171A9E001235354FD
:101B0000F5E70021C200164B121AD21805290AD097
:101B1000022908D001235354491CC9B20629F5D320
:101B20000121917194E000235354F5E70021C20094
:101B30000B4B121AD21804290AD0052908D0012308
:101B40005354491CC9B20629F5D3012191717FE094
:101B500000235354F5E7000008000020AC020020E9
:101B6000F0020020A08C0000090000200021C2002B
:101B70003C4B121AD21800290CD003290AD0042990
:101B800008D001235354491CC9B20629F3D30121BB
:101B900091715DE000235354F5E70021C200314B01
:101BA000121AD21801290AD0042908D0012353544B
:101BB000491CC9B20629F5D30121917148E00023DF
:101BC0005354F5E70021C200264B121AD2180129FE
:101BD00008D001235354491CC9B20629F7D3012167
:101BE000917135E000235370F5E70021C2001D4BD1
:101BF000121AD21800290CD001290AD0022908D0C3
:101C000000235354491CC9B20629F3D30021917112
:101C10001EE001235354F5E70021C200114B121AB4
:101C2000D31801225A54491CC9B20629FAD39A7111
:101C30000EE00021C2000B4B121AD21804290ED05C
:101C400001235354491CC9B20629F7D301219171CC
:101C5000401CC0B20099884200D2F6E6FEBD0023C7
:101C60001371EFE7F00200203EB500240125009437
:101C7000234622460621032001950294FFF728FB04
:101C8000012206210320FFF789FB002300941A4656
:101C90000521032001950294FFF71AFB012205217B
:101CA0000320FFF77BFB0023032100941A4608461C
:101CB00001950294FFF70CFB032101220846FFF770
:101CC0006DFB01940123002204210320009502945E
:101CD000FFF7FEFA002204210320FFF75FFB00223A
:101CE000009401230221104601950294FFF7F0FAB7
:101CF000002202211046FFF751FB002300940194BB
:101D00001A46012118460294FFF7E2FA00230094D4
:101D100001941A46052102200294FFF7D9FA012105
:101D20000520FEF7BFFE0023009401941A46072108
:101D300002200294FFF7CCFA0023009401941A4683
:101D4000012103200294FFF7C3FA0022012103209E
:101D5000FFF724FB00220194012303211046009584
:101D60000294FFF7B5FA002203211046FFF716FB95
:101D7000012202210320FFF777FA01220621022027
:101D8000FFF772FA012203210220FFF76DFA3EBD30
:101D900010B5002400F032F800F042F8082000F0FE
:101DA000A0F800F019F8082000F09BF801E0641C8E
:101DB000A4B205210120FFF74DFA002801D0642CC0
:101DC000F5D3642C06D000F019F8082000F089F84B
:101DD000012010BD002010BD0EB500200121009093
:101DE0000B4602460191029004210120FFF770FA90
:101DF000012204211046FFF7D1FA0EBD0EB50020D6
:101E0000012100900B46024601910290042101201D
:101E1000FFF75EFA002204210120FFF7BFFA0EBD92
:101E200010B5012205211046FFF71EFA10BD0EB5B0
:101E30000020012100900B460246019102900521ED
:101E40000120FFF745FA012205211046FFF7A6FA07
:101E50000EBD0EB50020012100900B4602460191F7
:101E6000029005210120FFF733FA0022052101200D
:101E7000FFF794FA0EBD10B5FFF7C0FF082000F081
:101E800030F8FFF7E6FF082000F02BF8FFF7A4FF7B
:101E9000082000F026F8FFF7B1FF082000F021F835
:101EA000FFF7BEFF082000F01CF810BD10B5FFF7CB
:101EB000A5FF082000F015F8FFF7B9FF082000F093
:101EC00010F8FFF789FF082000F00BF8FFF796FFE6
:101ED000082000F006F8FFF7BCFF082000F001F82A
:101EE00010BD00B5821E002A05D00120FEF7D3FFE9
:101EF000521E002AF9D100BD10B5FFF7AAFF082035
:101F0000FFF7EFFFFFF768FF0820FFF7EAFFFFF793
:101F10008EFF0820FFF7E5FF10BD000010B5FEF7AB
:101F20006FFD0149086010BD000000201CB50220B3
:101F3000FEF762FE01210020FEF708FDFFF7EEFF2D
:101F40000821684600F0B5FC012069464870034846
:101F500001906846FEF73AFF1CBD0000FFFFFF003E
:101F600008B50020694608700120487088706846EE
:101F7000FEF78AFD01211020FEF726FE0121082030
:101F8000FEF722FE08BD10B5012211460020FFF722
:101F900005FA012205210220FFF700FA012207219C
:101FA0000220FFF7FBF9FFF7A2FB522000F090FBA5
:101FB000302000F08DFB002000F08AFB0A2000F0AA
:101FC00087FB022000F084FB062000F081FB10BD9F
:101FD000F8B554480688002E76D053480A21406B45
:101FE000FEF7E7F8044651480A2100684E4A4C4380
:101FF000411A1278002784421CDA032A1AD0FF23E0
:102000004A4AC333984205DB464B0F2E02D3116078
:102010001F8046E0FF239133984205DB414B1E2E83
:1020200002D311601F803CE0FF218731884238DCF9
:10203000146036E03C4D6B7A00932D7AAB4207D9A1
:102040002D2D05D1FF23FF339C4201DA032A05D051
:10205000009BAB4218D9282D10D015E0FF23334A3E
:10206000C333984204DD2F480F2E01D3116007803F
:102070001168994215DC2C48457212E0FF23FF33AA
:102080009C4201DA032A20D00099274EA94204D0AD
:102090000A21FEF78EF8A84202DB0098A84200D879
:1020A0007572224820490268944202DB1D4A17805B
:1020B0000460026894422CDCFF228732944228DCC0
:1020C0004A7C012A23D024E02BE0FF23174AC333A4
:1020D000984205DB134B0F2E02D311601F800EE0D8
:1020E000FF239133984205DB0E4B1E2E02D3116065
:1020F0001F8004E0FF218731884200DC1460FF204C
:10210000116891308142CCDC07484572C9E7046010
:102110004F740068844204DBFF209130844200DC6D
:102120004F74F8BDB2020020080000209002002089
:10213000F8B52C482D4C07782B4D0A21206BFEF763
:1021400038F80090FF20F530294E646B022F01D340
:10215000844231DD844219DD0A212046FEF729F848
:102160000A2148433060002C07DAFEF722F8642188
:1021700041430098081A2860F8BD0A21FEF719F8B3
:1021800064214143009808182860F8BD002C09DA42
:102190000A212046FEF70DF8642141430098081AF1
:1021A0002860F8BD0A212046FEF703F86421414368
:1021B000009808182860F8BD3068002808DA0A215D
:1021C000FDF7F7FF642141430098081A2860F8BD25
:1021D0000A21FDF7EEFF64214143009808182860AA
:1021E000F8BD0000A8020020A40200200800002082
:1021F00090020020FEB56C480A2107686B480197E1
:10220000006B00906948406BFDF7D3FF0A214843FB
:10221000054666480026047A002F06DBC07963284D
:1022200003D9FF209B30854251DA614801688D4215
:1022300008DD282C06D1FF219B318D4202DB056091
:102240005C490E805B4BFF271A888737782A06D3B4
:102250000168002903DA0A3101601E8014E01E2A99
:1022600008D30168002905DB642903DA0A3101601B
:102270001E8009E03C2A07D30168642904DBB942C7
:1022800002DC0A3101601E800068B84202DD282CA1
:1022900000D11E8000280DDA0A21FDF78AFF0746CB
:1022A00064214F430A210098FDF783FF391A424801
:1022B00001600CE00A21FDF77CFF074664214F43D3
:1022C0000A210098FDF775FF39183B480160FF218E
:1022D00036489B318D4264DB0199002961DB2D2C4E
:1022E00001D0322C5DD1417AA1425AD130480168E7
:1022F0008D4202DD05602F490E802E4BFF25198887
:10230000C33578290AD3FF2702689137BA4205DB23
:10231000AA4203DA0A3202601E802CE0F02908D3B8
:102320000268AA4205DBFF25D735AA4201DC322C20
:1023300016D0FF226932914206D302681546FF3D4E
:10234000E13D01D1322C0FD02D221201914212D346
:1023500001680A46FF3AEB3A0DD1322C08D00AE068
:102360000A3202601E8006E00A3202601E8002E02D
:102370000A3101601E800068FF21EB31884200DDD8
:102380001E800A4901224A740A21FDF712FF044601
:1023900064214C430A210098FDF70BFF21180648E1
:1023A0000160FFF7C5FEFEBDD0020020080000203E
:1023B00090020020B0020020A4020020064900285C
:1023C00005D0012805D0022805D188680047086893
:1023D0000047486800477047E4020020F8B5002035
:1023E000FEF7B6F901287DD10020FEF755F900F07F
:1023F000A5FA654800240078644D012802D0002821
:1024000004D004E0A88A401CA88200E0AC826048A6
:10241000604A0078012806D01178012903D00346CC
:102420000B4304D004E0698A491C698200E06C8295
:1024300011780143584821D00480FEF7A9F8574885
:10244000007801281ED05648007801281AD0554837
:102450000078002803D054480078012812D02C823C
:10246000524E3078002811D0EC6151490A78514918
:10247000002A0FD00A68521C0A600CE00188491C2F
:102480000180DAE7288A401C2882E9E7E969491CCB
:10249000E961EAE70C60E989491C89B2E9817D2399
:1024A0001B010122994201D96A70EC8142490B78E3
:1024B0004249002B03D00B885B1C0B8000E00C8092
:1024C0007D27FF00032817D0AC816C813078042869
:1024D00006D03B480078072802D02889401C288174
:1024E000288900E007E0B84203D3E888401CE88070
:1024F0002C81FFF76DFDF8BDA869401CA861B842AA
:1025000009D96888401C6880A888401CA880AC61F4
:10251000E88A401CE882A889401C80B2A881294929
:10252000884205D92878002813D000202870AC8173
:102530006889401C80B26881E121C900884200D9C5
:102540006C8121480078002805D0286A401C286248
:1025500002E00120EAE72C621C486B88016899427E
:10256000B4D1AC8034701A4901601A49282008702F
:102570001948047019480270002201210320FEF757
:102580000DFFAC616C80A1E7D4020020AC020020FA
:10259000D6020020D5020020DA0200201700002019
:1025A0001800002013000020120000200800002066
:1025B0000A000020280000201F000020200000202A
:1025C00009000020881300000C0000202C000020CF
:1025D0006054000010000020D80200200D000020F0
:1025E00030B585B00024154D0020FEF755F80020C9
:1025F000FEF792F8012203210E20FEF76FFD012065
:102600006946087000224A708A70CA700A7148715F
:102610000B4802900020FEF7B5F8002800D00124F6
:1026200029460020FEF716F829460020FEF752F84A
:102630000020FEF74DF9204605B030BD60F00000E7
:10264000DD23000010B51D4900220C7B0846022343
:102650000078012C01D1032803D08C7A012C08D0FA
:102660000FE0487D8C7D204301D0CB7210BDCA7233
:1026700010BD032805D0124CC869A04201D9CB7205
:1026800010BD104B486B984206D00F4C0B6BA34209
:1026900002D08B7B022B02D30120C87210BD6423B1
:1026A000D84202DC0320C87210BD084B984202DBFE
:1026B0000420C87210BDCA7210BD000008000020BE
:1026C00050910000DB050000E7030000120200004B
:1026D00010B50446002201211046FEF75FFEFFF709
:1026E00006F80421802000F029F80821204600F097
:1026F00025F8012211460020FEF750FEFEF7F7FFF5
:1027000010BD70B504460D46002201211046FEF7AB
:1027100045FE0321A02000F011F8A006000E0621BE
:1027200000F00CF80421284600F039F80122114687
:102730000020FEF733FEFEF7DAFF70BD70B50546E8
:102740000E4600241EE0002205210220FEF726FE90
:10275000280605D5012207210220FEF71FFE04E00E
:10276000002207210220FEF719FEFEF7C0FFFEF748
:10277000BEFF012205210220FEF710FE6806050EAD
:10278000641CE4B2B442DED3002205210220FEF72D
:1027900005FE002207210220FEF700FE70BD70B585
:1027A00005460E4600241DE0002205210220FEF70A
:1027B000F5FDE80705D0012207210220FEF7EEFD16
:1027C00004E0002207210220FEF7E8FDFEF78FFF5C
:1027D000FEF78DFF012205210220FEF7DFFD6D08C7
:1027E000641CE4B2B442DFD3002205210220FEF7CC
:1027F000D5FD002207210220FEF7D0FD70BD70B587
:102800000026FFF7FBFAFFF70BFB0820FFF769FB39
:102810000024FFF7E1FAFEF71FFB00250521012048
:10282000FEF718FD002800D0012570002843C6B22D
:10283000FFF7E4FAFEF710FB641CE4B2082CE8D3BF
:10284000FFF7EEFA0820FFF74CFB304670BD70B57D
:10285000044680260025FFF7D1FAFEF70EFB26423C
:1028600002D0FFF7E4FA01E0FFF7F3FAFFF7B4FA5A
:10287000FEF703FB6006040E6D1CEDB2082DEAD3D3
:10288000FFF7BCFA0820FFF72CFBFFF7C9FA082076
:10289000FFF727FB70BD30B47446641E2578641CB6
:1028A000AB4200D21D46635D5B00E31830BC1847A5
:1028B0007047002806D0002201E00270401C491E2B
:1028C0004B1CFAD170470000F8B504460B480026AF
:1028D00001270068084D3F06009008E0AE610849F6
:1028E0000098FDF75CFC381AA9698142FCD8641E87
:1028F000601CF3D1F8BD000000E000E00000002003
:1029000010270000F8B504460B4800260127006890
:10291000084D3F06009009E0AE617D21C900009896
:10292000FDF73DFC381AA9698142FCD8641E601C81
:10293000F2D1F8BD00E000E000000020F8B502216F
:102940000320FEF787FC01270024EA4DEA4E002809
:102950000ED106210220FEF77DFC012808D10321BB
:102960000220FEF777FC012802D12878002808D041
:10297000E249E34A088890420ED32A78012A07D018
:102980000AE02F70002206210320FEF707FD71E008
:10299000DC4A1278002A08D01E282BD302210320FB
:1029A000FEF758FC01281FD024E002202870307860
:1029B000002802D0042810D013E004203070D2493F
:1029C00005200870002201210320FEF7E7FC002209
:1029D00003211046FEF7E2FC03E03470CA490520EB
:1029E0000870CA48077045E02878012802D130787D
:1029F00004280AD0C14800881E282FD302210320B2
:102A0000FEF728FC012812D028E002202870BF48D9
:102A10000770BD4905200870002201210320FEF740
:102A2000BDFC002203211046FEF7B8FC22E0287806
:102A3000012813D13078042810D002202870B14921
:102A40000878002801D1B24A1480002804D0002060
:102A50000870AE4807700DE00120F9E7022103205D
:102A6000FEF7F8FB012805D12C7001220621032076
:102A7000FEF794FC03210220FEF7ECFB002817D19F
:102A800002210320FEF7E6FB012811D106210220D6
:102A9000FEF7E0FB01280BD16878002808D199489F
:102AA0000078012808D0002802D13078042803D00B
:102AB0006878012807D057E06F70002205210320B5
:102AC000FEF76CFC5CE0934800881E284CD3022380
:102AD0006B708E480770307804280AD08E4A002820
:102AE00015D08E49012818D0022826D003282BD0D3
:102AF00046E0854806210170012211460320FEF7B9
:102B00004DFC012203210020FEF748FC38E037701D
:102B10002C7183481178016032E081480078107090
:102B20003370E878002803D07E48A968016002E08D
:102B30007C48096801602C7122E07A4800680860CE
:102B400003203070EC701BE037702C7176480470F5
:102B5000EF70764A08681188401AA8606C480480B3
:102B60001480734804700BE003210220FEF772FB0F
:102B7000012805D16C70012205210320FEF70EFC0F
:102B800006210220FEF766FB002815D10221032052
:102B9000FEF760FB01280FD103210220FEF75AFB4C
:102BA000012809D157480078012809D0A8780028C1
:102BB00002D13078042803D0A878012807D069E032
:102BC000AF70032100220846FEF7E8FB6EE0514893
:102BD00000881E285ED30220A8704C480770554814
:102BE00004603078042804D0012810D0022818D0BE
:102BF0005CE0454807210170002201210320FEF717
:102C0000CDFB012203210020FEF7C8FB4EE0444922
:102C10000868322802DA401D086047E02820086072
:102C200044E02F713F48E121006809010746FDF7A4
:102C3000C0FA414B5A00002922D03A489F4201DA9B
:102C4000036033E03D498F4201DA01602EE0E1216B
:102C5000C9018F4201DA016028E039498F4201DA67
:102C6000016023E037498F4201DA01601EE03649F6
:102C70008F4201DA016019E0974217DA026015E02D
:102C80002848974204DAE1210901791801600DE032
:102C900003600BE006210220FEF7DCFA012805D1D3
:102CA000AC70032101220846FEF778FB2879002842
:102CB00006D1EA8812498A4202D93178012902D024
:102CC000012802D008E03470F8BDEA880C498A4235
:102CD00002D9317802290AD00028F5D1E9880848BC
:102CE0008142F1D930780228EED13470F8BD03204A
:102CF0003070F8BDD402002008000020C00200207F
:102D00008813000012000020090000201700002096
:102D1000B0020020BE020020100000202C00002085
:102D2000A00200209C020020AC020020AE02002085
:102D30001A000020C80200206054000070620000E9
:102D4000907E0000A08C0000B09A00002D20FFF7BC
:102D5000D9FDFEF7C4FCFFF743FCFFF714F9FDF7BC
:102D6000D3FDFEF7E5FBFEF7F9F9FEF72BFA0B486A
:102D70000B49007808700B480B4900680860042074
:102D8000FFF7C0FDFFF75EFCFEF7E8F9FEF71AFA61
:102D9000FFF758FC00F00AF8F6E7000010000020EA
:102DA000110000203400002030000020F8B5BC4D98
:102DB000BC4FA87ABC4C002600281AD00122022160
:102DC0000020FEF7EBFAE87A002877D01C21B748FC
:102DD000FFF76FFD0821B648FFF76BFD00220121C8
:102DE0000320FEF7DBFA002203211046FEF7D6FA95
:102DF000A5E02878042823D02E70AE4868622820E9
:102E00002872AD480660012068712E712E73AB48A0
:102E100006703E70AA480680EE70AE74FDF774FD31
:102E2000002202211046FEF7B9FA002201210320F8
:102E3000FEF7B4FA002203211046FEF7AFFA7EE057
:102E40006878002804D0012202210020FEF7A6FAAB
:102E50006878062802D007281FD070E00A21686B26
:102E6000FDF7A7F90A2141430AD506466421286BDC
:102E70004E430A214042FDF79CF93018206008E0DB
:102E8000064664214E430A21286BFDF792F930185B
:102E900020602068FEF76AFC51E0FF21E8694B31B1
:102EA00048438849FDF77BF96421FDF778F96421EF
:102EB00048432060FEF75AFC41E0FFE728780028ED
:102EC00007D0012808D0804902280BD003280CD055
:102ED0000EE0FFF72DF91AE07C48642100684843B2
:102EE000206014E00868206011E03A78002A02D0DF
:102EF000032803D00BE0FFF77DF908E038780128BC
:102F000005D16F486A6A0088101A086020606A4814
:102F10006F490068884202D9AE720120287428786F
:102F200003280FD0002201210320FEF737FA0022E8
:102F300003211046FEF732FA2068FEF717FCFDF772
:102F4000B3FFF8BD012211460320FEF727FA614FB7
:102F5000E869796C0090814206D80A21686BFDF718
:102F600028F9297A884209DD002203211046FEF75C
:102F700015FA2E71584806606E73DDE7B96900983E
:102F80008142D9D8012203210020FEF707FA01204F
:102F900028716879002815D00120E87500202B8B56
:102FA000EF6905E07D21C9008B4207D2401CC0B209
:102FB0003B49820038318958B942F3D8EE752E83E7
:102FC000A8716E710127EF7500203549344A098BCD
:102FD000D36905E07D22D200914207D2401CC0B2E5
:102FE0002F4A8500383252599A42F3D82C4DEE754B
:102FF0002E83E871384A394B116899429CD9A979D6
:10300000411A022902DBA8716E730AE0697B052967
:1030100003D24F2801D8491C697329464F2800D98B
:103020004E73687B052800D32F7316600A21686BE6
:10303000FDF7BFF80A214843E862FF22411E9032A3
:10304000914213D8297B002910D0A96A411A0A2974
:1030500003DB6E73EE74A8626EE7E87C401CC0B2BE
:10306000E874022889D36F75EE7465E70146FF396D
:103070009B395A29F0D8297B0029EDD0A96A091A71
:10308000642903DA6E732E75A86255E7287D401C0B
:10309000C0B228750328DFD3AF752E754CE700004A
:1030A00008000020AC020020A4020020F002002052
:1030B0009402002060540000C8020020D7020020C3
:1030C000AE020020FF0F00009C020020A0020020A2
:1030D00020BF020040020020CC020020C0D401002A
:1030E0000080000000960000083100000000002071
:1030F000F002000058030000D0320000F00200206F
:1031000090010000040100007400093D42053201F5
:10311000021428730F2703136054332392335691FC
:1031200033819033A38F33BC8E33CC8D33D28C3329
:10313000D08B33C38A33AE89338F8833658733337B
:103140008633F78433B183336382330A8133AA7FB2
:10315000333F7E33CE7C33527B33CE793345783365
:10316000B07633187533757333D071332470336F81
:103170006E33B86C33F86A33396933716733AB65D2
:1031800033DF6333156233416033745E33A25C33E3
:10319000D35A330459332C5733605533975343CCA8
:1031A000513250333B4E33794C43BB4A3249334B57
:1031B00047339B4533EF43334A4233AA40330F3FF3
:1031C000337C3D33EE3B33683A33E838336F373383
:1031D000FE35339334332E3333D331337C30332EB7
:1031E0002F33E92D33A92C33712B33402A33162981
:1031F00033F42733DA2633C52533B72433B12333E9
:10320000B22233BA2133C62033DB1F33F51E331607
:103210001E33401D336C1C339E1B33D81A33161AD1
:10322000335B1933A31833F217334517339D163325
:10323000FC15335D1533C61433301433A013331526
:1032400013338B12330812338A11330E1133941057
:1032500033211033B00F33420F33D60E336F0E339A
:103260000B0E33A90D334B0D33F00C33970C334059
:103270000C33ED0B339C0B334D0B33010B33B60A80
:10328000336F0A33290A33E50933A3093364093359
:10329000260933EA0833AF08337708334008330A86
:1032A0000833D60733A407337307334407331607AD
:1032B00033E90633BE06339306336A0633420633D8
:1032C0001B0633F60533D10533AD05036B8B0500C3
:1032D000FFFFFFFFFFFFFFFFFFFFFFFFFFFFFFFFFE
:1032E000FFFFFFFFFFFFFFFFFFFFFFFFFFFFFFFFEE
:1032F000FFFFFFFFFFFFFFFFFFFFFFFFFFFFFFFFDE
:10330000FFFFFFFFFFFFFFFFFFFFFFFFFFFFFFFFCD
:10331000FFFFFFFFFFFFFFFFFFFFFFFFFFFFFFFFBD
:0C332000FFFFFFFFFFFFFFFFFFFFFFFFAD
:00000001FF
